{
  "contractName": "FIRSystem",
  "abi": [
    {
      "anonymous": false,
      "inputs": [
        {
          "indexed": false,
          "internalType": "string",
          "name": "cid",
          "type": "string"
        }
      ],
      "name": "CIDStored",
      "type": "event"
    },
    {
      "inputs": [
        {
          "internalType": "string",
          "name": "cid",
          "type": "string"
        }
      ],
      "name": "storeCID",
      "outputs": [],
      "stateMutability": "nonpayable",
      "type": "function"
    },
    {
      "inputs": [],
      "name": "getAllCIDs",
      "outputs": [
        {
          "internalType": "string[]",
          "name": "",
          "type": "string[]"
        }
      ],
      "stateMutability": "view",
      "type": "function"
    }
  ],
  "bytecode": "0x608060405234801561000f575f80fd5b506108098061001d5f395ff3fe608060405234801561000f575f80fd5b5060043610610034575f3560e01c80633410e7ce14610038578063ccfdd32b14610056575b5f80fd5b610040610072565b60405161004d91906102f5565b60405180910390f35b610070600480360381019061006b9190610452565b610145565b005b60605f805480602002602001604051908101604052809291908181526020015f905b8282101561013c578382905f5260205f200180546100b1906104c6565b80601f01602080910402602001604051908101604052809291908181526020018280546100dd906104c6565b80156101285780601f106100ff57610100808354040283529160200191610128565b820191905f5260205f20905b81548152906001019060200180831161010b57829003601f168201915b505050505081526020019060010190610094565b50505050905090565b5f81908060018154018082558091505060019003905f5260205f20015f909190919091509081610175919061069c565b507fa4d0ffd5d729c1b64ff5f8650e676b67153438198aaf75250cbdf12a4a0cab63816040516101a591906107b3565b60405180910390a150565b5f81519050919050565b5f82825260208201905092915050565b5f819050602082019050919050565b5f81519050919050565b5f82825260208201905092915050565b5f5b838110156102105780820151818401526020810190506101f5565b5f8484015250505050565b5f601f19601f8301169050919050565b5f610235826101d9565b61023f81856101e3565b935061024f8185602086016101f3565b6102588161021b565b840191505092915050565b5f61026e838361022b565b905092915050565b5f602082019050919050565b5f61028c826101b0565b61029681856101ba565b9350836020820285016102a8856101ca565b805f5b858110156102e357848403895281516102c48582610263565b94506102cf83610276565b925060208a019950506001810190506102ab565b50829750879550505050505092915050565b5f6020820190508181035f83015261030d8184610282565b905092915050565b5f604051905090565b5f80fd5b5f80fd5b5f80fd5b5f80fd5b7f4e487b71000000000000000000000000000000000000000000000000000000005f52604160045260245ffd5b6103648261021b565b810181811067ffffffffffffffff821117156103835761038261032e565b5b80604052505050565b5f610395610315565b90506103a1828261035b565b919050565b5f67ffffffffffffffff8211156103c0576103bf61032e565b5b6103c98261021b565b9050602081019050919050565b828183375f83830152505050565b5f6103f66103f1846103a6565b61038c565b9050828152602081018484840111156104125761041161032a565b5b61041d8482856103d6565b509392505050565b5f82601f83011261043957610438610326565b5b81356104498482602086016103e4565b91505092915050565b5f602082840312156104675761046661031e565b5b5f82013567ffffffffffffffff81111561048457610483610322565b5b61049084828501610425565b91505092915050565b7f4e487b71000000000000000000000000000000000000000000000000000000005f52602260045260245ffd5b5f60028204905060018216806104dd57607f821691505b6020821081036104f0576104ef610499565b5b50919050565b5f819050815f5260205f209050919050565b5f6020601f8301049050919050565b5f82821b905092915050565b5f600883026105527fffffffffffffffffffffffffffffffffffffffffffffffffffffffffffffffff82610517565b61055c8683610517565b95508019841693508086168417925050509392505050565b5f819050919050565b5f819050919050565b5f6105a061059b61059684610574565b61057d565b610574565b9050919050565b5f819050919050565b6105b983610586565b6105cd6105c5826105a7565b848454610523565b825550505050565b5f90565b6105e16105d5565b6105ec8184846105b0565b505050565b5b8181101561060f576106045f826105d9565b6001810190506105f2565b5050565b601f82111561065457610625816104f6565b61062e84610508565b8101602085101561063d578190505b61065161064985610508565b8301826105f1565b50505b505050565b5f82821c905092915050565b5f6106745f1984600802610659565b1980831691505092915050565b5f61068c8383610665565b9150826002028217905092915050565b6106a5826101d9565b67ffffffffffffffff8111156106be576106bd61032e565b5b6106c882546104c6565b6106d3828285610613565b5f60209050601f831160018114610704575f84156106f2578287015190505b6106fc8582610681565b865550610763565b601f198416610712866104f6565b5f5b8281101561073957848901518255600182019150602085019450602081019050610714565b868310156107565784890151610752601f891682610665565b8355505b6001600288020188555050505b505050505050565b5f82825260208201905092915050565b5f610785826101d9565b61078f818561076b565b935061079f8185602086016101f3565b6107a88161021b565b840191505092915050565b5f6020820190508181035f8301526107cb818461077b565b90509291505056fea2646970667358221220bfd9ad1381c16121bbf18f3cd3dc46c67306549596692586b1a86a94276828a164736f6c63430008150033",
  "immutableReferences": {},
  "source": "// SPDX-License-Identifier: MIT\r\npragma solidity ^0.8.0;\r\n\r\ncontract FIRSystem {\r\n    // Array to store all the CIDs\r\n    string[] private cids;\r\n\r\n    // Event to emit when a CID is stored\r\n    event CIDStored(string cid);\r\n\r\n    // Function to store a CID\r\n    function storeCID(string memory cid) public {\r\n        cids.push(cid);\r\n        emit CIDStored(cid);\r\n    }\r\n\r\n    // Function to retrieve all stored CIDs\r\n    function getAllCIDs() public view returns (string[] memory) {\r\n        return cids;\r\n    }\r\n}\r\n",
  "sourcePath": "Z:\\MOHAN\\Root directory (2)\\Root directory\\contracts\\FIRSystem.sol",
  "compiler": {
    "name": "solc",
    "version": "0.8.21+commit.d9974bed.Emscripten.clang"
  },
  "schemaVersion": "3.4.16",
  "updatedAt": "2024-09-13T09:34:59.922Z",
  "devdoc": {
    "kind": "dev",
    "methods": {},
    "version": 1
  },
  "userdoc": {
    "kind": "user",
    "methods": {},
    "version": 1
  }
}